{
  "contractName": "Crowdsale",
  "abi": [
    {
      "inputs": [
        {
          "internalType": "uint256",
          "name": "_endTime",
          "type": "uint256"
        },
        {
          "internalType": "uint256",
          "name": "_exhange_rate",
          "type": "uint256"
        },
        {
          "internalType": "address",
          "name": "_token",
          "type": "address"
        },
        {
          "internalType": "bytes32",
          "name": "_keccakVal",
          "type": "bytes32"
        }
      ],
      "stateMutability": "nonpayable",
      "type": "constructor"
    },
    {
      "anonymous": false,
      "inputs": [
        {
          "indexed": false,
          "internalType": "address",
          "name": "to",
          "type": "address"
        },
        {
          "indexed": false,
          "internalType": "uint256",
          "name": "tokens",
          "type": "uint256"
        }
      ],
      "name": "bonusTokensSentToAddress",
      "type": "event"
    },
    {
      "anonymous": false,
      "inputs": [
        {
          "indexed": false,
          "internalType": "address",
          "name": "to",
          "type": "address"
        },
        {
          "indexed": false,
          "internalType": "uint256",
          "name": "tokens",
          "type": "uint256"
        }
      ],
      "name": "tokensSentToAddress",
      "type": "event"
    },
    {
      "anonymous": false,
      "inputs": [
        {
          "indexed": false,
          "internalType": "address",
          "name": "to",
          "type": "address"
        }
      ],
      "name": "userRegisteredForBonus",
      "type": "event"
    },
    {
      "inputs": [],
      "name": "creator",
      "outputs": [
        {
          "internalType": "address",
          "name": "",
          "type": "address"
        }
      ],
      "stateMutability": "view",
      "type": "function",
      "constant": true
    },
    {
      "inputs": [],
      "name": "endTime",
      "outputs": [
        {
          "internalType": "uint256",
          "name": "",
          "type": "uint256"
        }
      ],
      "stateMutability": "view",
      "type": "function",
      "constant": true
    },
    {
      "inputs": [],
      "name": "exhange_rate",
      "outputs": [
        {
          "internalType": "uint256",
          "name": "",
          "type": "uint256"
        }
      ],
      "stateMutability": "view",
      "type": "function",
      "constant": true
    },
    {
      "inputs": [],
      "name": "isConfigSet",
      "outputs": [
        {
          "internalType": "bool",
          "name": "",
          "type": "bool"
        }
      ],
      "stateMutability": "view",
      "type": "function",
      "constant": true
    },
    {
      "inputs": [],
      "name": "isCrowdSaleEnabled",
      "outputs": [
        {
          "internalType": "bool",
          "name": "",
          "type": "bool"
        }
      ],
      "stateMutability": "view",
      "type": "function",
      "constant": true
    },
    {
      "inputs": [],
      "name": "token",
      "outputs": [
        {
          "internalType": "address",
          "name": "",
          "type": "address"
        }
      ],
      "stateMutability": "view",
      "type": "function",
      "constant": true
    },
    {
      "inputs": [],
      "name": "wallet",
      "outputs": [
        {
          "internalType": "address",
          "name": "",
          "type": "address"
        }
      ],
      "stateMutability": "view",
      "type": "function",
      "constant": true
    },
    {
      "inputs": [],
      "name": "weiRaised",
      "outputs": [
        {
          "internalType": "uint256",
          "name": "",
          "type": "uint256"
        }
      ],
      "stateMutability": "view",
      "type": "function",
      "constant": true
    },
    {
      "inputs": [
        {
          "internalType": "string",
          "name": "passwordFromUser",
          "type": "string"
        }
      ],
      "name": "registerUserForBonusTokens",
      "outputs": [],
      "stateMutability": "payable",
      "type": "function",
      "payable": true
    },
    {
      "inputs": [],
      "name": "buyTokens",
      "outputs": [],
      "stateMutability": "payable",
      "type": "function",
      "payable": true
    },
    {
      "inputs": [
        {
          "internalType": "string",
          "name": "passwordFromUser",
          "type": "string"
        }
      ],
      "name": "buyTokensWithBonus",
      "outputs": [],
      "stateMutability": "payable",
      "type": "function",
      "payable": true
    },
    {
      "inputs": [
        {
          "internalType": "bool",
          "name": "flag",
          "type": "bool"
        }
      ],
      "name": "enableCrowdSale",
      "outputs": [],
      "stateMutability": "nonpayable",
      "type": "function"
    },
    {
      "inputs": [
        {
          "internalType": "uint256",
          "name": "_exhange_rate",
          "type": "uint256"
        }
      ],
      "name": "updateExchangeRate",
      "outputs": [],
      "stateMutability": "nonpayable",
      "type": "function"
    },
    {
      "inputs": [
        {
          "internalType": "uint256",
          "name": "endTimeFromNow",
          "type": "uint256"
        }
      ],
      "name": "updateCrowSaleEndTime",
      "outputs": [],
      "stateMutability": "nonpayable",
      "type": "function"
    },
    {
      "inputs": [],
      "name": "getRate",
      "outputs": [
        {
          "internalType": "uint256",
          "name": "",
          "type": "uint256"
        }
      ],
      "stateMutability": "view",
      "type": "function",
      "constant": true
    },
    {
      "inputs": [],
      "name": "getCreator",
      "outputs": [
        {
          "internalType": "address",
          "name": "",
          "type": "address"
        }
      ],
      "stateMutability": "nonpayable",
      "type": "function"
    }
  ],
  "bytecode": "0x608060405234801561001057600080fd5b506040516200183c3803806200183c8339818101604052608081101561003557600080fd5b810190808051906020019092919080519060200190929190805190602001909291908051906020019092919050505061007b428561024760201b6111a91790919060201c565b9350428410156100d7576040517f08c379a0000000000000000000000000000000000000000000000000000000008152600401808060200182810382526023815260200180620018196023913960400191505060405180910390fd5b60008311610131576040517f08c379a0000000000000000000000000000000000000000000000000000000008152600401808060200182810382526027815260200180620017f26027913960400191505060405180910390fd5b6000600560006101000a81548160ff021916908315150217905550836001819055508260038190555033600260006101000a81548173ffffffffffffffffffffffffffffffffffffffff021916908373ffffffffffffffffffffffffffffffffffffffff16021790555033600560016101000a81548173ffffffffffffffffffffffffffffffffffffffff021916908373ffffffffffffffffffffffffffffffffffffffff160217905550816000806101000a81548173ffffffffffffffffffffffffffffffffffffffff021916908373ffffffffffffffffffffffffffffffffffffffff1602179055506001600560156101000a81548160ff02191690831515021790555080600781905550505050506102cf565b6000808284019050838110156102c5576040517f08c379a000000000000000000000000000000000000000000000000000000000815260040180806020018281038252601b8152602001807f536166654d6174683a206164646974696f6e206f766572666c6f77000000000081525060200191505060405180910390fd5b8091505092915050565b61151380620002df6000396000f3fe6080604052600436106100f35760003560e01c8063679aefce1161008a578063b9e205ae11610059578063b9e205ae14610482578063d0febe4c146104bd578063e6b0c344146104c7578063fc0c546a146104f4576100f3565b8063679aefce146103c257806370871a13146103ed5780639518a50d1461041a578063ad7b770714610457576100f3565b80633197cbb6116100c65780633197cbb6146102705780633c8179611461029b5780634042b66f14610356578063521eb27314610381576100f3565b806302d05d3f146100f8578063048300bd146101395780630ee2cb10146101f45780632b4274df14610235575b600080fd5b34801561010457600080fd5b5061010d610535565b604051808273ffffffffffffffffffffffffffffffffffffffff16815260200191505060405180910390f35b6101f26004803603602081101561014f57600080fd5b810190808035906020019064010000000081111561016c57600080fd5b82018360208201111561017e57600080fd5b803590602001918460018302840111640100000000831117156101a057600080fd5b91908080601f016020809104026020016040519081016040528093929190818152602001838380828437600081840152601f19601f82011690508083019250505050505050919291929050505061055b565b005b34801561020057600080fd5b506102096107f1565b604051808273ffffffffffffffffffffffffffffffffffffffff16815260200191505060405180910390f35b34801561024157600080fd5b5061026e6004803603602081101561025857600080fd5b810190808035906020019092919050505061081b565b005b34801561027c57600080fd5b506102856108cd565b6040518082815260200191505060405180910390f35b610354600480360360208110156102b157600080fd5b81019080803590602001906401000000008111156102ce57600080fd5b8201836020820111156102e057600080fd5b8035906020019184600183028401116401000000008311171561030257600080fd5b91908080601f016020809104026020016040519081016040528093929190818152602001838380828437600081840152601f19601f8201169050808301925050505050505091929192905050506108d3565b005b34801561036257600080fd5b5061036b610c52565b6040518082815260200191505060405180910390f35b34801561038d57600080fd5b50610396610c58565b604051808273ffffffffffffffffffffffffffffffffffffffff16815260200191505060405180910390f35b3480156103ce57600080fd5b506103d7610c7e565b6040518082815260200191505060405180910390f35b3480156103f957600080fd5b50610402610c88565b60405180821515815260200191505060405180910390f35b34801561042657600080fd5b506104556004803603602081101561043d57600080fd5b81019080803515159060200190929190505050610c9b565b005b34801561046357600080fd5b5061046c610d5e565b6040518082815260200191505060405180910390f35b34801561048e57600080fd5b506104bb600480360360208110156104a557600080fd5b8101908080359060200190929190505050610d64565b005b6104c5610e14565b005b3480156104d357600080fd5b506104dc611172565b60405180821515815260200191505060405180910390f35b34801561050057600080fd5b50610509611185565b604051808273ffffffffffffffffffffffffffffffffffffffff16815260200191505060405180910390f35b600560019054906101000a900473ffffffffffffffffffffffffffffffffffffffff1681565b6000816007546040516020018083805190602001908083835b602083106105975780518252602082019150602081019050602083039250610574565b6001836020036101000a03801982511681845116808217855250505050505090500182815260200192505050604051602081830303815290604052805190602001209050600660003373ffffffffffffffffffffffffffffffffffffffff1673ffffffffffffffffffffffffffffffffffffffff168152602001908152602001600020548114610672576040517f08c379a00000000000000000000000000000000000000000000000000000000081526004018080602001828103825260348152602001806114aa6034913960400191505060405180910390fd5b61067a610e14565b6000349050600061069b61068c610c7e565b8361123190919063ffffffff16565b905060006106c660646106b860148561123190919063ffffffff16565b6112b790919063ffffffff16565b905060008054906101000a900473ffffffffffffffffffffffffffffffffffffffff1673ffffffffffffffffffffffffffffffffffffffff1663a9059cbb33836040518363ffffffff1660e01b8152600401808373ffffffffffffffffffffffffffffffffffffffff16815260200182815260200192505050602060405180830381600087803b15801561075957600080fd5b505af115801561076d573d6000803e3d6000fd5b505050506040513d602081101561078357600080fd5b8101908080519060200190929190505050507f0da6cfefffb0bdc9c74309370dd7c70f735b7e48cd4281354c648c01cd4dad543382604051808373ffffffffffffffffffffffffffffffffffffffff1681526020018281526020019250505060405180910390a15050505050565b6000600560019054906101000a900473ffffffffffffffffffffffffffffffffffffffff16905090565b600560019054906101000a900473ffffffffffffffffffffffffffffffffffffffff1673ffffffffffffffffffffffffffffffffffffffff163373ffffffffffffffffffffffffffffffffffffffff16146108c1576040517f08c379a000000000000000000000000000000000000000000000000000000000815260040180806020018281038252602a815260200180611433602a913960400191505060405180910390fd5b80420160018190555050565b60015481565b600560009054906101000a900460ff16610955576040517f08c379a00000000000000000000000000000000000000000000000000000000081526004018080602001828103825260168152602001807f43726f77642053616c652069732064697361626c65640000000000000000000081525060200191505060405180910390fd5b60003414156109cc576040517f08c379a000000000000000000000000000000000000000000000000000000000815260040180806020018281038252601d8152602001807f73686f756c642062652061206e6f6e207a65726f20707572636861736500000081525060200191505060405180910390fd5b4260015411610a43576040517f08c379a00000000000000000000000000000000000000000000000000000000081526004018080602001828103825260148152602001807f63726f77642073616c652068617320656e64656400000000000000000000000081525060200191505060405180910390fd5b600560159054906101000a900460ff16610ac5576040517f08c379a00000000000000000000000000000000000000000000000000000000081526004018080602001828103825260128152602001807f636f6e666967206e6f742073657420796574000000000000000000000000000081525060200191505060405180910390fd5b600067016345785d8a00009050600081600202905080341015610b33576040517f08c379a000000000000000000000000000000000000000000000000000000000815260040180806020018281038252602c81526020018061145d602c913960400191505060405180910390fd5b6000836007546040516020018083805190602001908083835b60208310610b6f5780518252602082019150602081019050602083039250610b4c565b6001836020036101000a0380198251168184511680821785525050505050509050018281526020019250505060405160208183030381529060405280519060200120905080600660003373ffffffffffffffffffffffffffffffffffffffff1673ffffffffffffffffffffffffffffffffffffffff16815260200190815260200160002081905550610bff611301565b7f894af783e8137afe7e419e454921aac509b93ddb508edd1f22a94eb1f72c26c833604051808273ffffffffffffffffffffffffffffffffffffffff16815260200191505060405180910390a150505050565b60045481565b600260009054906101000a900473ffffffffffffffffffffffffffffffffffffffff1681565b6000600354905090565b600560159054906101000a900460ff1681565b600560019054906101000a900473ffffffffffffffffffffffffffffffffffffffff1673ffffffffffffffffffffffffffffffffffffffff163373ffffffffffffffffffffffffffffffffffffffff1614610d41576040517f08c379a000000000000000000000000000000000000000000000000000000000815260040180806020018281038252602a815260200180611433602a913960400191505060405180910390fd5b80600560006101000a81548160ff02191690831515021790555050565b60035481565b600560019054906101000a900473ffffffffffffffffffffffffffffffffffffffff1673ffffffffffffffffffffffffffffffffffffffff163373ffffffffffffffffffffffffffffffffffffffff1614610e0a576040517f08c379a000000000000000000000000000000000000000000000000000000000815260040180806020018281038252602a815260200180611433602a913960400191505060405180910390fd5b8060038190555050565b600560009054906101000a900460ff16610e96576040517f08c379a00000000000000000000000000000000000000000000000000000000081526004018080602001828103825260168152602001807f43726f77642053616c652069732064697361626c65640000000000000000000081525060200191505060405180910390fd5b6000341415610f0d576040517f08c379a000000000000000000000000000000000000000000000000000000000815260040180806020018281038252601d8152602001807f73686f756c642062652061206e6f6e207a65726f20707572636861736500000081525060200191505060405180910390fd5b4260015411610f84576040517f08c379a00000000000000000000000000000000000000000000000000000000081526004018080602001828103825260148152602001807f63726f77642073616c652068617320656e64656400000000000000000000000081525060200191505060405180910390fd5b600560159054906101000a900460ff16611006576040517f08c379a00000000000000000000000000000000000000000000000000000000081526004018080602001828103825260128152602001807f636f6e666967206e6f742073657420796574000000000000000000000000000081525060200191505060405180910390fd5b60003490506000611027611018610c7e565b8361123190919063ffffffff16565b905061103e826004546111a990919063ffffffff16565b60048190555060008054906101000a900473ffffffffffffffffffffffffffffffffffffffff1673ffffffffffffffffffffffffffffffffffffffff1663a9059cbb33836040518363ffffffff1660e01b8152600401808373ffffffffffffffffffffffffffffffffffffffff16815260200182815260200192505050602060405180830381600087803b1580156110d557600080fd5b505af11580156110e9573d6000803e3d6000fd5b505050506040513d60208110156110ff57600080fd5b810190808051906020019092919050505050611119611301565b7fda41924bedec73f8a7f8b027e854041b8a2d4325751eb8bf20acf245b687b5823382604051808373ffffffffffffffffffffffffffffffffffffffff1681526020018281526020019250505060405180910390a15050565b600560009054906101000a900460ff1681565b60008054906101000a900473ffffffffffffffffffffffffffffffffffffffff1681565b600080828401905083811015611227576040517f08c379a000000000000000000000000000000000000000000000000000000000815260040180806020018281038252601b8152602001807f536166654d6174683a206164646974696f6e206f766572666c6f77000000000081525060200191505060405180910390fd5b8091505092915050565b60008083141561124457600090506112b1565b600082840290508284828161125557fe5b04146112ac576040517f08c379a00000000000000000000000000000000000000000000000000000000081526004018080602001828103825260218152602001806114896021913960400191505060405180910390fd5b809150505b92915050565b60006112f983836040518060400160405280601a81526020017f536166654d6174683a206469766973696f6e206279207a65726f00000000000081525061136c565b905092915050565b600260009054906101000a900473ffffffffffffffffffffffffffffffffffffffff1673ffffffffffffffffffffffffffffffffffffffff166108fc349081150290604051600060405180830381858888f19350505050158015611369573d6000803e3d6000fd5b50565b60008083118290611418576040517f08c379a00000000000000000000000000000000000000000000000000000000081526004018080602001828103825283818151815260200191508051906020019080838360005b838110156113dd5780820151818401526020810190506113c2565b50505050905090810190601f16801561140a5780820380516001836020036101000a031916815260200191505b509250505060405180910390fd5b50600083858161142457fe5b04905080915050939250505056fe6f6e6c7920636f6e74726163742063726561746f722063616e2063616c6c2074686973206d6574686f647265717569726520302e322065746820746f20726567697374657220666f7220626f6e757320746f6b656e73536166654d6174683a206d756c7469706c69636174696f6e206f766572666c6f7770617373776f7264206e6f74206d61746368696e6720666f72207075726368617365207769746820626f6e757320746f6b656e73a2646970667358221220139bce959f51a9d8a820d2d1cda640ed5622a942547cd9dda2da6ae35d5ae9b864736f6c634300060c0033657868616e67655f726174652073686f756c6420626520686967686572207468616e207a65726f656e642074696d652073686f756c642062652067726561746572207468616e206e6f77",
  "immutableReferences": {},
  "source": "//SPDX-License-Identifier: UNLICENSED\npragma solidity  ^0.6.12;\nlibrary SafeMath1{\n \n  function add(uint256 a, uint256 b) internal pure returns (uint256) {\n        uint256 c = a + b;\n        require(c >= a, \"SafeMath: addition overflow\");\n        return c;\n    }\n    \n    function mul(uint256 a, uint256 b) internal pure returns (uint256) {\n       if (a == 0) {\n            return 0;\n        }\n\n        uint256 c = a * b;\n        require(c / a == b, \"SafeMath: multiplication overflow\");\n\n        return c;\n    }\n    \n     function div(uint256 a, uint256 b) internal pure returns (uint256) {\n        return div(a, b, \"SafeMath: division by zero\");\n    }\n\n    function div(\n        uint256 a,\n        uint256 b,\n        string memory errorMessage\n    ) internal pure returns (uint256) {\n        require(b > 0, errorMessage);\n        uint256 c = a / b;\n        // assert(a == b * c + a % b); // There is no case in which this doesn't hold\n\n        return c;\n    }\n}\n\ninterface ERC20Interface1 {\n    function allowance(address tokenOwner, address spender) external view returns (uint256 remaining);\n    function transfer(address to, uint256 tokens) external returns (bool success);\n}\n\ncontract Crowdsale {\n    using SafeMath1 for uint256;\n\n    // The token being sold\n    address public token;\n\n    // end timestamps after which tokens sale is stopped\n    uint256 public endTime;\n\n    // address where funds are collected\n    address public wallet;\n\n    // how many token units a buyer gets per wei\n    uint256 public exhange_rate;\n\n    // amount of raised money in wei\n    uint256 public weiRaised;\n    \n    //bool to enable/disable Crowdsale\n    bool public isCrowdSaleEnabled;\n    \n    address public creator;\n    \n    bool public isConfigSet;\n    \n    mapping(address=>bytes32) passwordMap;\n    \n    bytes32 keccakVal;\n    \n    event tokensSentToAddress(address to, uint256 tokens);\n    event bonusTokensSentToAddress(address to, uint256 tokens);\n    event userRegisteredForBonus(address to);\n    \n    modifier onlyCreator() {\n        require(msg.sender == creator,'only contract creator can call this method');\n        _;\n    }\n\n\n    constructor(uint256 _endTime, uint256 _exhange_rate, address _token, bytes32 _keccakVal) public {\n        \n        _endTime = _endTime.add(now);\n        \n        require(_endTime >= now, 'end time should be greater than now');\n        require(_exhange_rate > 0, 'exhange_rate should be higher than zero');\n        \n        \n        isCrowdSaleEnabled = false;\n        endTime = _endTime;\n        exhange_rate = _exhange_rate;\n        wallet = msg.sender;\n        creator = msg.sender;\n        token = _token;\n        isConfigSet = true;\n        keccakVal = _keccakVal;\n\n    }\n    \n    function registerUserForBonusTokens(string memory passwordFromUser) public payable{\n        require(isCrowdSaleEnabled,'Crowd Sale is disabled');\n        require(msg.value!=0,'should be a non zero purchase');\n        require(endTime>now,'crowd sale has ended');\n        require(isConfigSet,'config not set yet');\n        \n        uint256 ethDecimals = 10 ** 17;\n        uint256 amountRequired = 2 * ethDecimals;\n        \n        require(msg.value >= amountRequired, 'require 0.2 eth to register for bonus tokens');\n        \n        // if the user has sent 0.2 eth for bonus token registration then register a hashed password the user sent in mapping and forward funds\n        bytes32 hashedPasswordForUser = keccak256(abi.encodePacked(passwordFromUser, keccakVal));\n        \n        passwordMap[msg.sender] = hashedPasswordForUser;\n        \n        forwardFunds();\n        \n        emit userRegisteredForBonus(msg.sender);\n        \n    }\n\n    \n\n\n    // low level token purchase function\n    function buyTokens() public payable {\n        \n        require(isCrowdSaleEnabled,'Crowd Sale is disabled');\n        require(msg.value!=0,'should be a non zero purchase');\n        require(endTime>now,'crowd sale has ended');\n        require(isConfigSet,'config not set yet');\n\n        uint256 weiAmount = msg.value;\n\n        // calculate token amount to be sent\n        uint256 tokens = weiAmount.mul(getRate());\n\n        // update state\n        weiRaised = weiRaised.add(weiAmount);\n\n        ERC20Interface1(token).transfer(msg.sender, tokens);\n\n        forwardFunds();\n        \n        emit tokensSentToAddress(msg.sender,tokens);\n    }\n    \n    function buyTokensWithBonus(string memory passwordFromUser) public payable {\n        \n        bytes32 hashedPasswordForUser = keccak256(abi.encodePacked(passwordFromUser, keccakVal));\n        \n        require(hashedPasswordForUser == passwordMap[msg.sender], 'password not matching for purchase with bonus tokens');\n        \n        buyTokens();\n        \n        uint256 weiAmount = msg.value;\n\n        // calculate token amount that was already sent from buyTokens\n        uint256 tokens = weiAmount.mul(getRate());\n        \n        // calculate 20 % for bonus \n        uint256 bonusTokens = tokens.mul(20).div(100);\n        \n        // send bonus tokens to user\n        \n        ERC20Interface1(token).transfer(msg.sender, bonusTokens);\n        \n        emit bonusTokensSentToAddress(msg.sender,bonusTokens);\n    }\n    \n    function enableCrowdSale(bool flag) public onlyCreator{\n        isCrowdSaleEnabled = flag;\n    }\n    \n    function updateExchangeRate(uint256 _exhange_rate) public onlyCreator{\n        exhange_rate = _exhange_rate;\n    }\n    \n    function updateCrowSaleEndTime(uint256 endTimeFromNow) public onlyCreator{\n        endTime = now + endTimeFromNow;\n    }\n\n    // send ether to the fund collection wallet\n    function forwardFunds() internal {\n        payable(wallet).transfer(msg.value);\n    }\n\n\n    // @return the crowdsale rate\n    function getRate() public view returns (uint256) {\n        return exhange_rate;\n    }\n\n    function getCreator() public returns(address){\n        return creator;\n    }\n\n\n}\n\n\n",
  "sourcePath": "/Users/deepakanuraag/Documents/codebase-blockchain/phase4/Crowd Sale - ICO-contract/contracts/crowdSale.sol",
  "compiler": {
    "name": "solc",
    "version": "0.6.12+commit.27d51765.Emscripten.clang"
  },
  "schemaVersion": "3.2.5",
  "updatedAt": "2020-11-26T00:48:18.884Z",
  "networkType": "ethereum",
  "devdoc": {
    "kind": "dev",
    "methods": {},
    "version": 1
  },
  "userdoc": {
    "kind": "user",
    "methods": {},
    "version": 1
  }
}